{
  "contractName": "CampusAidPlatform",
  "abi": [
    {
      "inputs": [],
      "stateMutability": "nonpayable",
      "type": "constructor"
    },
    {
      "inputs": [
        {
          "internalType": "address",
          "name": "spender",
          "type": "address"
        },
        {
          "internalType": "uint256",
          "name": "allowance",
          "type": "uint256"
        },
        {
          "internalType": "uint256",
          "name": "needed",
          "type": "uint256"
        }
      ],
      "name": "ERC20InsufficientAllowance",
      "type": "error"
    },
    {
      "inputs": [
        {
          "internalType": "address",
          "name": "sender",
          "type": "address"
        },
        {
          "internalType": "uint256",
          "name": "balance",
          "type": "uint256"
        },
        {
          "internalType": "uint256",
          "name": "needed",
          "type": "uint256"
        }
      ],
      "name": "ERC20InsufficientBalance",
      "type": "error"
    },
    {
      "inputs": [
        {
          "internalType": "address",
          "name": "approver",
          "type": "address"
        }
      ],
      "name": "ERC20InvalidApprover",
      "type": "error"
    },
    {
      "inputs": [
        {
          "internalType": "address",
          "name": "receiver",
          "type": "address"
        }
      ],
      "name": "ERC20InvalidReceiver",
      "type": "error"
    },
    {
      "inputs": [
        {
          "internalType": "address",
          "name": "sender",
          "type": "address"
        }
      ],
      "name": "ERC20InvalidSender",
      "type": "error"
    },
    {
      "inputs": [
        {
          "internalType": "address",
          "name": "spender",
          "type": "address"
        }
      ],
      "name": "ERC20InvalidSpender",
      "type": "error"
    },
    {
      "inputs": [
        {
          "internalType": "address",
          "name": "owner",
          "type": "address"
        }
      ],
      "name": "OwnableInvalidOwner",
      "type": "error"
    },
    {
      "inputs": [
        {
          "internalType": "address",
          "name": "account",
          "type": "address"
        }
      ],
      "name": "OwnableUnauthorizedAccount",
      "type": "error"
    },
    {
      "anonymous": false,
      "inputs": [
        {
          "indexed": true,
          "internalType": "address",
          "name": "owner",
          "type": "address"
        },
        {
          "indexed": true,
          "internalType": "address",
          "name": "spender",
          "type": "address"
        },
        {
          "indexed": false,
          "internalType": "uint256",
          "name": "value",
          "type": "uint256"
        }
      ],
      "name": "Approval",
      "type": "event"
    },
    {
      "anonymous": false,
      "inputs": [
        {
          "indexed": false,
          "internalType": "uint256",
          "name": "taskId",
          "type": "uint256"
        },
        {
          "indexed": false,
          "internalType": "address",
          "name": "arbitrator",
          "type": "address"
        },
        {
          "indexed": false,
          "internalType": "bool",
          "name": "favorCreator",
          "type": "bool"
        }
      ],
      "name": "ArbitrationVoted",
      "type": "event"
    },
    {
      "anonymous": false,
      "inputs": [
        {
          "indexed": true,
          "internalType": "address",
          "name": "previousOwner",
          "type": "address"
        },
        {
          "indexed": true,
          "internalType": "address",
          "name": "newOwner",
          "type": "address"
        }
      ],
      "name": "OwnershipTransferred",
      "type": "event"
    },
    {
      "anonymous": false,
      "inputs": [
        {
          "indexed": false,
          "internalType": "address",
          "name": "user",
          "type": "address"
        },
        {
          "indexed": false,
          "internalType": "uint256",
          "name": "newReputation",
          "type": "uint256"
        }
      ],
      "name": "ReputationUpdated",
      "type": "event"
    },
    {
      "anonymous": false,
      "inputs": [
        {
          "indexed": false,
          "internalType": "uint256",
          "name": "resourceId",
          "type": "uint256"
        },
        {
          "indexed": false,
          "internalType": "string",
          "name": "title",
          "type": "string"
        },
        {
          "indexed": false,
          "internalType": "uint256",
          "name": "price",
          "type": "uint256"
        }
      ],
      "name": "ResourcePublished",
      "type": "event"
    },
    {
      "anonymous": false,
      "inputs": [
        {
          "indexed": false,
          "internalType": "uint256",
          "name": "resourceId",
          "type": "uint256"
        },
        {
          "indexed": false,
          "internalType": "address",
          "name": "buyer",
          "type": "address"
        }
      ],
      "name": "ResourcePurchased",
      "type": "event"
    },
    {
      "anonymous": false,
      "inputs": [
        {
          "indexed": false,
          "internalType": "uint256",
          "name": "taskId",
          "type": "uint256"
        },
        {
          "indexed": false,
          "internalType": "address",
          "name": "accepter",
          "type": "address"
        }
      ],
      "name": "TaskAccepted",
      "type": "event"
    },
    {
      "anonymous": false,
      "inputs": [
        {
          "indexed": false,
          "internalType": "uint256",
          "name": "taskId",
          "type": "uint256"
        },
        {
          "indexed": false,
          "internalType": "address",
          "name": "canceller",
          "type": "address"
        }
      ],
      "name": "TaskCancelled",
      "type": "event"
    },
    {
      "anonymous": false,
      "inputs": [
        {
          "indexed": false,
          "internalType": "uint256",
          "name": "taskId",
          "type": "uint256"
        }
      ],
      "name": "TaskCompleted",
      "type": "event"
    },
    {
      "anonymous": false,
      "inputs": [
        {
          "indexed": false,
          "internalType": "uint256",
          "name": "taskId",
          "type": "uint256"
        },
        {
          "indexed": false,
          "internalType": "address",
          "name": "creator",
          "type": "address"
        }
      ],
      "name": "TaskCreated",
      "type": "event"
    },
    {
      "anonymous": false,
      "inputs": [
        {
          "indexed": false,
          "internalType": "uint256",
          "name": "taskId",
          "type": "uint256"
        }
      ],
      "name": "TaskDisputed",
      "type": "event"
    },
    {
      "anonymous": false,
      "inputs": [
        {
          "indexed": false,
          "internalType": "uint256",
          "name": "taskId",
          "type": "uint256"
        },
        {
          "indexed": false,
          "internalType": "bool",
          "name": "favorCreator",
          "type": "bool"
        }
      ],
      "name": "TaskResolved",
      "type": "event"
    },
    {
      "anonymous": false,
      "inputs": [
        {
          "indexed": true,
          "internalType": "address",
          "name": "from",
          "type": "address"
        },
        {
          "indexed": true,
          "internalType": "address",
          "name": "to",
          "type": "address"
        },
        {
          "indexed": false,
          "internalType": "uint256",
          "name": "value",
          "type": "uint256"
        }
      ],
      "name": "Transfer",
      "type": "event"
    },
    {
      "anonymous": false,
      "inputs": [
        {
          "indexed": false,
          "internalType": "address",
          "name": "user",
          "type": "address"
        }
      ],
      "name": "UserRegistered",
      "type": "event"
    },
    {
      "inputs": [],
      "name": "WEI_PER_TOKEN",
      "outputs": [
        {
          "internalType": "uint256",
          "name": "",
          "type": "uint256"
        }
      ],
      "stateMutability": "view",
      "type": "function",
      "constant": true
    },
    {
      "inputs": [
        {
          "internalType": "address",
          "name": "owner",
          "type": "address"
        },
        {
          "internalType": "address",
          "name": "spender",
          "type": "address"
        }
      ],
      "name": "allowance",
      "outputs": [
        {
          "internalType": "uint256",
          "name": "",
          "type": "uint256"
        }
      ],
      "stateMutability": "view",
      "type": "function",
      "constant": true
    },
    {
      "inputs": [
        {
          "internalType": "address",
          "name": "spender",
          "type": "address"
        },
        {
          "internalType": "uint256",
          "name": "value",
          "type": "uint256"
        }
      ],
      "name": "approve",
      "outputs": [
        {
          "internalType": "bool",
          "name": "",
          "type": "bool"
        }
      ],
      "stateMutability": "nonpayable",
      "type": "function"
    },
    {
      "inputs": [
        {
          "internalType": "uint256",
          "name": "",
          "type": "uint256"
        }
      ],
      "name": "arbitrations",
      "outputs": [
        {
          "internalType": "uint256",
          "name": "taskId",
          "type": "uint256"
        },
        {
          "internalType": "uint256",
          "name": "favorCreatorCount",
          "type": "uint256"
        },
        {
          "internalType": "uint256",
          "name": "favorAccepterCount",
          "type": "uint256"
        }
      ],
      "stateMutability": "view",
      "type": "function",
      "constant": true
    },
    {
      "inputs": [
        {
          "internalType": "uint256",
          "name": "",
          "type": "uint256"
        }
      ],
      "name": "arbitrators",
      "outputs": [
        {
          "internalType": "address",
          "name": "",
          "type": "address"
        }
      ],
      "stateMutability": "view",
      "type": "function",
      "constant": true
    },
    {
      "inputs": [
        {
          "internalType": "address",
          "name": "account",
          "type": "address"
        }
      ],
      "name": "balanceOf",
      "outputs": [
        {
          "internalType": "uint256",
          "name": "",
          "type": "uint256"
        }
      ],
      "stateMutability": "view",
      "type": "function",
      "constant": true
    },
    {
      "inputs": [
        {
          "internalType": "address",
          "name": "",
          "type": "address"
        }
      ],
      "name": "creditScores",
      "outputs": [
        {
          "internalType": "uint256",
          "name": "",
          "type": "uint256"
        }
      ],
      "stateMutability": "view",
      "type": "function",
      "constant": true
    },
    {
      "inputs": [
        {
          "internalType": "address",
          "name": "",
          "type": "address"
        }
      ],
      "name": "isRegistered",
      "outputs": [
        {
          "internalType": "bool",
          "name": "",
          "type": "bool"
        }
      ],
      "stateMutability": "view",
      "type": "function",
      "constant": true
    },
    {
      "inputs": [],
      "name": "name",
      "outputs": [
        {
          "internalType": "string",
          "name": "",
          "type": "string"
        }
      ],
      "stateMutability": "view",
      "type": "function",
      "constant": true
    },
    {
      "inputs": [],
      "name": "owner",
      "outputs": [
        {
          "internalType": "address",
          "name": "",
          "type": "address"
        }
      ],
      "stateMutability": "view",
      "type": "function",
      "constant": true
    },
    {
      "inputs": [],
      "name": "renounceOwnership",
      "outputs": [],
      "stateMutability": "nonpayable",
      "type": "function"
    },
    {
      "inputs": [
        {
          "internalType": "uint256",
          "name": "",
          "type": "uint256"
        }
      ],
      "name": "resources",
      "outputs": [
        {
          "internalType": "uint256",
          "name": "id",
          "type": "uint256"
        },
        {
          "internalType": "string",
          "name": "title",
          "type": "string"
        },
        {
          "internalType": "string",
          "name": "description",
          "type": "string"
        },
        {
          "internalType": "uint256",
          "name": "price",
          "type": "uint256"
        },
        {
          "internalType": "address",
          "name": "owner",
          "type": "address"
        }
      ],
      "stateMutability": "view",
      "type": "function",
      "constant": true
    },
    {
      "inputs": [],
      "name": "symbol",
      "outputs": [
        {
          "internalType": "string",
          "name": "",
          "type": "string"
        }
      ],
      "stateMutability": "view",
      "type": "function",
      "constant": true
    },
    {
      "inputs": [
        {
          "internalType": "uint256",
          "name": "",
          "type": "uint256"
        }
      ],
      "name": "tasks",
      "outputs": [
        {
          "internalType": "uint256",
          "name": "id",
          "type": "uint256"
        },
        {
          "internalType": "string",
          "name": "title",
          "type": "string"
        },
        {
          "internalType": "string",
          "name": "description",
          "type": "string"
        },
        {
          "internalType": "uint256",
          "name": "points",
          "type": "uint256"
        },
        {
          "internalType": "string",
          "name": "taskType",
          "type": "string"
        },
        {
          "internalType": "uint256",
          "name": "deadline",
          "type": "uint256"
        },
        {
          "internalType": "address",
          "name": "creator",
          "type": "address"
        },
        {
          "internalType": "address",
          "name": "accepter",
          "type": "address"
        },
        {
          "internalType": "bool",
          "name": "isMatched",
          "type": "bool"
        },
        {
          "internalType": "bool",
          "name": "isCompleted",
          "type": "bool"
        },
        {
          "internalType": "bool",
          "name": "isDisputed",
          "type": "bool"
        },
        {
          "internalType": "string",
          "name": "disputedReason",
          "type": "string"
        }
      ],
      "stateMutability": "view",
      "type": "function",
      "constant": true
    },
    {
      "inputs": [],
      "name": "totalSupply",
      "outputs": [
        {
          "internalType": "uint256",
          "name": "",
          "type": "uint256"
        }
      ],
      "stateMutability": "view",
      "type": "function",
      "constant": true
    },
    {
      "inputs": [
        {
          "internalType": "address",
          "name": "to",
          "type": "address"
        },
        {
          "internalType": "uint256",
          "name": "value",
          "type": "uint256"
        }
      ],
      "name": "transfer",
      "outputs": [
        {
          "internalType": "bool",
          "name": "",
          "type": "bool"
        }
      ],
      "stateMutability": "nonpayable",
      "type": "function"
    },
    {
      "inputs": [
        {
          "internalType": "address",
          "name": "from",
          "type": "address"
        },
        {
          "internalType": "address",
          "name": "to",
          "type": "address"
        },
        {
          "internalType": "uint256",
          "name": "value",
          "type": "uint256"
        }
      ],
      "name": "transferFrom",
      "outputs": [
        {
          "internalType": "bool",
          "name": "",
          "type": "bool"
        }
      ],
      "stateMutability": "nonpayable",
      "type": "function"
    },
    {
      "inputs": [
        {
          "internalType": "address",
          "name": "newOwner",
          "type": "address"
        }
      ],
      "name": "transferOwnership",
      "outputs": [],
      "stateMutability": "nonpayable",
      "type": "function"
    },
    {
      "inputs": [
        {
          "internalType": "address",
          "name": "to",
          "type": "address"
        },
        {
          "internalType": "uint256",
          "name": "amount",
          "type": "uint256"
        }
      ],
      "name": "mint",
      "outputs": [],
      "stateMutability": "nonpayable",
      "type": "function"
    },
    {
      "inputs": [
        {
          "internalType": "uint256",
          "name": "amount",
          "type": "uint256"
        }
      ],
      "name": "burn",
      "outputs": [],
      "stateMutability": "nonpayable",
      "type": "function"
    },
    {
      "inputs": [],
      "name": "buyTokens",
      "outputs": [],
      "stateMutability": "payable",
      "type": "function",
      "payable": true
    },
    {
      "inputs": [],
      "name": "withdrawEther",
      "outputs": [],
      "stateMutability": "nonpayable",
      "type": "function"
    },
    {
      "inputs": [],
      "name": "decimals",
      "outputs": [
        {
          "internalType": "uint8",
          "name": "",
          "type": "uint8"
        }
      ],
      "stateMutability": "pure",
      "type": "function",
      "constant": true
    },
    {
      "inputs": [
        {
          "internalType": "address",
          "name": "_addr",
          "type": "address"
        }
      ],
      "name": "isArbitrator",
      "outputs": [
        {
          "internalType": "bool",
          "name": "",
          "type": "bool"
        }
      ],
      "stateMutability": "view",
      "type": "function",
      "constant": true
    },
    {
      "inputs": [
        {
          "internalType": "address",
          "name": "arbitrator",
          "type": "address"
        }
      ],
      "name": "addArbitrator",
      "outputs": [],
      "stateMutability": "nonpayable",
      "type": "function"
    },
    {
      "inputs": [
        {
          "internalType": "address",
          "name": "arbitrator",
          "type": "address"
        }
      ],
      "name": "removeArbitrator",
      "outputs": [],
      "stateMutability": "nonpayable",
      "type": "function"
    },
    {
      "inputs": [],
      "name": "register",
      "outputs": [],
      "stateMutability": "nonpayable",
      "type": "function"
    },
    {
      "inputs": [],
      "name": "getTaskCount",
      "outputs": [
        {
          "internalType": "uint256",
          "name": "",
          "type": "uint256"
        }
      ],
      "stateMutability": "view",
      "type": "function",
      "constant": true
    },
    {
      "inputs": [],
      "name": "getResourceCount",
      "outputs": [
        {
          "internalType": "uint256",
          "name": "",
          "type": "uint256"
        }
      ],
      "stateMutability": "view",
      "type": "function",
      "constant": true
    },
    {
      "inputs": [
        {
          "internalType": "string",
          "name": "title",
          "type": "string"
        },
        {
          "internalType": "string",
          "name": "description",
          "type": "string"
        },
        {
          "internalType": "uint256",
          "name": "price",
          "type": "uint256"
        }
      ],
      "name": "publishResource",
      "outputs": [],
      "stateMutability": "nonpayable",
      "type": "function"
    },
    {
      "inputs": [
        {
          "internalType": "uint256",
          "name": "resourceId",
          "type": "uint256"
        }
      ],
      "name": "purchaseResource",
      "outputs": [],
      "stateMutability": "nonpayable",
      "type": "function"
    },
    {
      "inputs": [],
      "name": "getOwnedResources",
      "outputs": [
        {
          "components": [
            {
              "internalType": "uint256",
              "name": "id",
              "type": "uint256"
            },
            {
              "internalType": "string",
              "name": "title",
              "type": "string"
            },
            {
              "internalType": "string",
              "name": "description",
              "type": "string"
            },
            {
              "internalType": "uint256",
              "name": "price",
              "type": "uint256"
            },
            {
              "internalType": "address",
              "name": "owner",
              "type": "address"
            }
          ],
          "internalType": "struct CampusAidPlatform.Resource[]",
          "name": "",
          "type": "tuple[]"
        }
      ],
      "stateMutability": "view",
      "type": "function",
      "constant": true
    },
    {
      "inputs": [],
      "name": "getAllResources",
      "outputs": [
        {
          "components": [
            {
              "internalType": "uint256",
              "name": "id",
              "type": "uint256"
            },
            {
              "internalType": "string",
              "name": "title",
              "type": "string"
            },
            {
              "internalType": "string",
              "name": "description",
              "type": "string"
            },
            {
              "internalType": "uint256",
              "name": "price",
              "type": "uint256"
            },
            {
              "internalType": "address",
              "name": "owner",
              "type": "address"
            }
          ],
          "internalType": "struct CampusAidPlatform.Resource[]",
          "name": "",
          "type": "tuple[]"
        }
      ],
      "stateMutability": "view",
      "type": "function",
      "constant": true
    },
    {
      "inputs": [
        {
          "internalType": "string",
          "name": "title",
          "type": "string"
        },
        {
          "internalType": "string",
          "name": "description",
          "type": "string"
        },
        {
          "internalType": "uint256",
          "name": "points",
          "type": "uint256"
        },
        {
          "internalType": "string",
          "name": "taskType",
          "type": "string"
        },
        {
          "internalType": "uint256",
          "name": "deadline",
          "type": "uint256"
        }
      ],
      "name": "createTask",
      "outputs": [],
      "stateMutability": "nonpayable",
      "type": "function"
    },
    {
      "inputs": [
        {
          "internalType": "uint256",
          "name": "taskId",
          "type": "uint256"
        }
      ],
      "name": "acceptTask",
      "outputs": [],
      "stateMutability": "nonpayable",
      "type": "function"
    },
    {
      "inputs": [
        {
          "internalType": "uint256",
          "name": "taskId",
          "type": "uint256"
        }
      ],
      "name": "completeTask",
      "outputs": [],
      "stateMutability": "nonpayable",
      "type": "function"
    },
    {
      "inputs": [
        {
          "internalType": "uint256",
          "name": "taskId",
          "type": "uint256"
        }
      ],
      "name": "cancelTask",
      "outputs": [],
      "stateMutability": "nonpayable",
      "type": "function"
    },
    {
      "inputs": [],
      "name": "getTasksCreateByMe",
      "outputs": [
        {
          "components": [
            {
              "internalType": "uint256",
              "name": "id",
              "type": "uint256"
            },
            {
              "internalType": "string",
              "name": "title",
              "type": "string"
            },
            {
              "internalType": "string",
              "name": "description",
              "type": "string"
            },
            {
              "internalType": "uint256",
              "name": "points",
              "type": "uint256"
            },
            {
              "internalType": "string",
              "name": "taskType",
              "type": "string"
            },
            {
              "internalType": "uint256",
              "name": "deadline",
              "type": "uint256"
            },
            {
              "internalType": "address",
              "name": "creator",
              "type": "address"
            },
            {
              "internalType": "address",
              "name": "accepter",
              "type": "address"
            },
            {
              "internalType": "bool",
              "name": "isMatched",
              "type": "bool"
            },
            {
              "internalType": "bool",
              "name": "isCompleted",
              "type": "bool"
            },
            {
              "internalType": "bool",
              "name": "isDisputed",
              "type": "bool"
            },
            {
              "internalType": "string",
              "name": "disputedReason",
              "type": "string"
            }
          ],
          "internalType": "struct CampusAidPlatform.Task[]",
          "name": "",
          "type": "tuple[]"
        }
      ],
      "stateMutability": "view",
      "type": "function",
      "constant": true
    },
    {
      "inputs": [
        {
          "internalType": "uint256",
          "name": "taskIndex",
          "type": "uint256"
        },
        {
          "internalType": "string",
          "name": "reason",
          "type": "string"
        }
      ],
      "name": "submitTaskAsDisputed",
      "outputs": [],
      "stateMutability": "nonpayable",
      "type": "function"
    },
    {
      "inputs": [
        {
          "internalType": "uint256",
          "name": "taskId",
          "type": "uint256"
        },
        {
          "internalType": "bool",
          "name": "favorCreator",
          "type": "bool"
        }
      ],
      "name": "voteDispute",
      "outputs": [],
      "stateMutability": "nonpayable",
      "type": "function"
    },
    {
      "inputs": [
        {
          "internalType": "uint256",
          "name": "taskId",
          "type": "uint256"
        },
        {
          "internalType": "address",
          "name": "arbitrator",
          "type": "address"
        }
      ],
      "name": "hasVoted",
      "outputs": [
        {
          "internalType": "bool",
          "name": "",
          "type": "bool"
        }
      ],
      "stateMutability": "view",
      "type": "function",
      "constant": true
    },
    {
      "inputs": [],
      "name": "getUnMatchedTasks",
      "outputs": [
        {
          "internalType": "uint256",
          "name": "",
          "type": "uint256"
        },
        {
          "components": [
            {
              "internalType": "uint256",
              "name": "id",
              "type": "uint256"
            },
            {
              "internalType": "string",
              "name": "title",
              "type": "string"
            },
            {
              "internalType": "string",
              "name": "description",
              "type": "string"
            },
            {
              "internalType": "uint256",
              "name": "points",
              "type": "uint256"
            },
            {
              "internalType": "string",
              "name": "taskType",
              "type": "string"
            },
            {
              "internalType": "uint256",
              "name": "deadline",
              "type": "uint256"
            },
            {
              "internalType": "address",
              "name": "creator",
              "type": "address"
            },
            {
              "internalType": "address",
              "name": "accepter",
              "type": "address"
            },
            {
              "internalType": "bool",
              "name": "isMatched",
              "type": "bool"
            },
            {
              "internalType": "bool",
              "name": "isCompleted",
              "type": "bool"
            },
            {
              "internalType": "bool",
              "name": "isDisputed",
              "type": "bool"
            },
            {
              "internalType": "string",
              "name": "disputedReason",
              "type": "string"
            }
          ],
          "internalType": "struct CampusAidPlatform.Task[]",
          "name": "",
          "type": "tuple[]"
        }
      ],
      "stateMutability": "view",
      "type": "function",
      "constant": true
    },
    {
      "inputs": [],
      "name": "getDisputedTasks",
      "outputs": [
        {
          "internalType": "uint256",
          "name": "",
          "type": "uint256"
        },
        {
          "components": [
            {
              "internalType": "uint256",
              "name": "id",
              "type": "uint256"
            },
            {
              "internalType": "string",
              "name": "title",
              "type": "string"
            },
            {
              "internalType": "string",
              "name": "description",
              "type": "string"
            },
            {
              "internalType": "uint256",
              "name": "points",
              "type": "uint256"
            },
            {
              "internalType": "string",
              "name": "taskType",
              "type": "string"
            },
            {
              "internalType": "uint256",
              "name": "deadline",
              "type": "uint256"
            },
            {
              "internalType": "address",
              "name": "creator",
              "type": "address"
            },
            {
              "internalType": "address",
              "name": "accepter",
              "type": "address"
            },
            {
              "internalType": "bool",
              "name": "isMatched",
              "type": "bool"
            },
            {
              "internalType": "bool",
              "name": "isCompleted",
              "type": "bool"
            },
            {
              "internalType": "bool",
              "name": "isDisputed",
              "type": "bool"
            },
            {
              "internalType": "string",
              "name": "disputedReason",
              "type": "string"
            }
          ],
          "internalType": "struct CampusAidPlatform.Task[]",
          "name": "",
          "type": "tuple[]"
        }
      ],
      "stateMutability": "view",
      "type": "function",
      "constant": true
    },
    {
      "inputs": [
        {
          "internalType": "address",
          "name": "user",
          "type": "address"
        }
      ],
      "name": "getReputation",
      "outputs": [
        {
          "internalType": "uint256",
          "name": "",
          "type": "uint256"
        }
      ],
      "stateMutability": "view",
      "type": "function",
      "constant": true
    }
  ],
  "bytecode": "0x60806040523480156200001157600080fd5b50336040518060400160405280600a81526020017f506f696e74546f6b656e000000000000000000000000000000000000000000008152506040518060400160405280600581526020017f506f696e74000000000000000000000000000000000000000000000000000000815250816003908162000090919062000478565b5060046200009f828262000478565b505050600160a060020a038116620000eb576040517f1e4fbdf7000000000000000000000000000000000000000000000000000000008152600060048201526024015b60405180910390fd5b620000ff816401000000006200018f810204565b50600662000115640100000000620001e1810204565b8154600181018355600092835260209092209091018054600160a060020a031916600160a060020a0390921691909117905562000189336200015f640100000000620001f0810204565b6200016c90600a6200067c565b6200017a906103e862000694565b640100000000620001f5810204565b620006c4565b60058054600160a060020a03838116600160a060020a0319831681179093556040519116919082907f8be0079c531659141344cd1fd0a4f28419497f9722a3daafe3b4186f6b6457e090600090a35050565b600554600160a060020a031690565b600290565b600160a060020a0382166200023a576040517fec442f0500000000000000000000000000000000000000000000000000000000815260006004820152602401620000e2565b620002516000838364010000000062000255810204565b5050565b600160a060020a03831662000284578060026000828254620002789190620006ae565b90915550620003119050565b600160a060020a03831660009081526020819052604090205481811015620002f2576040517fe450d38c000000000000000000000000000000000000000000000000000000008152600160a060020a03851660048201526024810182905260448101839052606401620000e2565b600160a060020a03841660009081526020819052604090209082900390555b600160a060020a0382166200032f576002805482900390556200034e565b600160a060020a03821660009081526020819052604090208054820190555b81600160a060020a031683600160a060020a03167fddf252ad1be2c89b69c2b068fc378daa952ba7f163c4a11628f55a4df523b3ef836040516200039491815260200190565b60405180910390a3505050565b7f4e487b7100000000000000000000000000000000000000000000000000000000600052604160045260246000fd5b600281046001821680620003e557607f821691505b6020821081036200041f577f4e487b7100000000000000000000000000000000000000000000000000000000600052602260045260246000fd5b50919050565b601f82111562000473576000818152602081206020601f860104810160208610156200044e5750805b6020601f860104820191505b818110156200046f578281556001016200045a565b5050505b505050565b815167ffffffffffffffff811115620004955762000495620003a1565b620004ad81620004a68454620003d0565b8462000425565b602080601f831160018114620004e95760008415620004cc5750858301515b60028086026008870290910a60001904198216178655506200046f565b600085815260208120601f198616915b828110156200051a57888601518255948401946001909101908401620004f9565b50858210156200053b57878501516008601f88160260020a60001904191681555b5050505050600202600101905550565b7f4e487b7100000000000000000000000000000000000000000000000000000000600052601160045260246000fd5b600181815b80851115620005bd5781600019048211156200059f576200059f6200054b565b80851615620005ad57918102915b600290940493908002906200057f565b509250929050565b600082620005d65750600162000676565b81620005e55750600062000676565b8160018114620005fe576002811462000609576200062a565b600191505062000676565b60ff8411156200061d576200061d6200054b565b8360020a91505062000676565b5060208310610133831016604e8410600b84101617156200064f575081810a62000676565b6200065b83836200057a565b80600019048211156200067257620006726200054b565b0290505b92915050565b60006200068d60ff841683620005c5565b9392505050565b80820281158282048414176200067657620006766200054b565b808201808211156200067657620006766200054b565b61484c80620006d46000396000f3fe608060405260043610610284576000357c01000000000000000000000000000000000000000000000000000000009004806380bb727311610161578063a9059cbb116100d3578063c3c5a54711610097578063c3c5a547146107bb578063cf3d6322146107eb578063d0febe4c14610800578063dd62ed3e14610808578063e1e295581461084e578063f2fde38b1461086e57600080fd5b8063a9059cbb146106f7578063b022772114610717578063baace33e1461073a578063c17a340e1461074f578063c26c44531461076457600080fd5b8063973ad27011610125578063973ad2701461062c5780639c89a0e21461064c5780639f6bd2a9146106825780639f96de0f146106a2578063a5c19817146106b7578063a6430cc0146106d757600080fd5b806380bb72731461055e5780638d9776721461058b5780638da5cb5b146105c35780639175ed99146105f557806395d89b411461061757600080fd5b8063313ce567116101fa57806353de5b27116101be57806353de5b271461049c5780636ab23829146104be57806370a08231146104de578063715018a6146105145780637362377b146105295780637eec20a81461053e57600080fd5b8063313ce5671461040057806340c10f191461041c57806342966c681461043c578063438596321461045c57806346baa17e1461047c57600080fd5b80631977be631161024c5780631977be63146103455780631aa3a008146103655780631bf6912d1461037a5780632293dbdb1461039a57806323b872dd146103af578063244d6daa146103cf57600080fd5b806301fabd75146102895780630326113d146102ab57806306fdde03146102cb578063095ea7b3146102f657806318160ddd14610326575b600080fd5b34801561029557600080fd5b506102a96102a4366004613eda565b61088e565b005b3480156102b757600080fd5b506102a96102c6366004613fa2565b610955565b3480156102d757600080fd5b506102e0610c9a565b6040516102ed9190614082565b60405180910390f35b34801561030257600080fd5b50610316610311366004614095565b610d2c565b60405190151581526020016102ed565b34801561033257600080fd5b506002545b6040519081526020016102ed565b34801561035157600080fd5b506102a96103603660046140bf565b610d46565b34801561037157600080fd5b506102a9610f7a565b34801561038657600080fd5b506102a96103953660046140f4565b611038565b3480156103a657600080fd5b50610337606481565b3480156103bb57600080fd5b506103166103ca36600461410d565b611315565b3480156103db57600080fd5b506103ef6103ea3660046140f4565b611339565b6040516102ed959493929190614149565b34801561040c57600080fd5b50604051600281526020016102ed565b34801561042857600080fd5b506102a9610437366004614095565b611495565b34801561044857600080fd5b506102a96104573660046140f4565b6114ba565b34801561046857600080fd5b50610316610477366004614196565b6114de565b34801561048857600080fd5b506102a96104973660046141c2565b61155b565b3480156104a857600080fd5b506104b1611703565b6040516102ed919061422f565b3480156104ca57600080fd5b506102a96104d93660046140f4565b611a0b565b3480156104ea57600080fd5b506103376104f9366004613eda565b600160a060020a031660009081526020819052604090205490565b34801561052057600080fd5b506102a9611b6f565b34801561053557600080fd5b506102a9611b83565b34801561054a57600080fd5b506102a96105593660046140f4565b611bde565b34801561056a57600080fd5b50610337610579366004613eda565b60096020526000908152604090205481565b34801561059757600080fd5b506105ab6105a63660046140f4565b611e06565b6040516102ed9c9b9a999897969594939291906142da565b3480156105cf57600080fd5b50600554600160a060020a03165b604051600160a060020a0390911681526020016102ed565b34801561060157600080fd5b5061060a6120b2565b6040516102ed91906144ac565b34801561062357600080fd5b506102e06124ef565b34801561063857600080fd5b506102a9610647366004613eda565b6124fe565b34801561065857600080fd5b50610337610667366004613eda565b600160a060020a031660009081526009602052604090205490565b34801561068e57600080fd5b5061031661069d366004613eda565b612668565b3480156106ae57600080fd5b50600b54610337565b3480156106c357600080fd5b506102a96106d23660046144bf565b6126d1565b3480156106e357600080fd5b506105dd6106f23660046140f4565b6128a6565b34801561070357600080fd5b50610316610712366004614095565b6128d0565b34801561072357600080fd5b5061072c6128de565b6040516102ed929190614506565b34801561074657600080fd5b506104b1612d18565b34801561075b57600080fd5b50600a54610337565b34801561077057600080fd5b506107a061077f3660046140f4565b60076020526000908152604090208054600282015460039092015490919083565b604080519384526020840192909252908201526060016102ed565b3480156107c757600080fd5b506103166107d6366004613eda565b60086020526000908152604090205460ff1681565b3480156107f757600080fd5b5061072c612ec8565b6102a96132f5565b34801561081457600080fd5b50610337610823366004614527565b600160a060020a03918216600090815260016020908152604080832093909416825291909152205490565b34801561085a57600080fd5b506102a96108693660046140f4565b613479565b34801561087a57600080fd5b506102a9610889366004613eda565b613742565b600554600160a060020a031633146108a557600080fd5b6108ae81612668565b156109035760405160e560020a62461bcd02815260206004820152601560248201527f416c726561647920616e2061726269747261746f72000000000000000000000060448201526064015b60405180910390fd5b600680546001810182556000919091527ff652222313e28459528d920b65115c16c04f3efc82aaedc97be59f3f377c0d3f018054600160a060020a031916600160a060020a0392909216919091179055565b3360009081526008602052604090205460ff166109875760405160e560020a62461bcd0281526004016108fa90614551565b33600090815260096020526040902054603c908111156109ec5760405160e560020a62461bcd02815260206004820152601760248201527f496e73756666696369656e742072657075746174696f6e00000000000000000060448201526064016108fa565b33600090815260208190526040902054841115610a4e5760405160e560020a62461bcd02815260206004820152601360248201527f496e73756666696369656e7420706f696e74730000000000000000000000000060448201526064016108fa565b610a59333086613796565b6040805161018081018252600a805480835260208084018b81528486018b9052606085018a90526080850189905260a085018890523360c0860152600060e08601819052610100860181905261012086018190526101408601819052865192830190965285825261016085019190915260018201835591909352815160099093027fc65a7bb8d6351c1cf70c95a316cc6a92839c986682d98bc35f958f4883f9d2a8810193845590519192917fc65a7bb8d6351c1cf70c95a316cc6a92839c986682d98bc35f958f4883f9d2a990910190610b349082614613565b5060408201516002820190610b499082614613565b506060820151600382015560808201516004820190610b689082614613565b5060a0820151600582015560c0820151600682018054600160a060020a03928316600160a060020a031990911617905560e0830151600783018054610100860151610120870151610140880151151560b060020a0276ff000000000000000000000000000000000000000000001991151560a860020a029190911676ffff0000000000000000000000000000000000000000001992151560a060020a0274ffffffffffffffffffffffffffffffffffffffffff1990941695909616949094179190911716929092171790556101608201516008820190610c489082614613565b5050600a547fe9ee39160568153d230ca0e29961267415d513defbb7d3b21af0fe940e1ebd159150610c7c906001906146f2565b604080519182523360208301520160405180910390a1505050505050565b606060038054610ca990614588565b80601f0160208091040260200160405190810160405280929190818152602001828054610cd590614588565b8015610d225780601f10610cf757610100808354040283529160200191610d22565b820191906000526020600020905b815481529060010190602001808311610d0557829003601f168201915b5050505050905090565b600033610d3a81858561382c565b60019150505b92915050565b610d4f33612668565b610d9e5760405160e560020a62461bcd02815260206004820152601d60248201527f4f6e6c792061726269747261746f722063616e2063616c6c207468697300000060448201526064016108fa565b6000828152600760205260408120600a805491929185908110610dc357610dc3614705565b906000526020600020906009020190508060070160169054906101000a900460ff16610e345760405160e560020a62461bcd02815260206004820152601460248201527f5461736b206973206e6f7420646973707574656400000000000000000000000060448201526064016108fa565b610e3e84336114de565b15610e8e5760405160e560020a62461bcd02815260206004820152601860248201527f41726269747261746f7220616c726561647920766f746564000000000000000060448201526064016108fa565b600180830180549182018155600090815260209020018054600160a060020a031916331790558215610ed657600282018054906000610ecc8361471e565b9190505550610eee565b600382018054906000610ee88361471e565b91905055505b604080518581523360208201528415158183015290517f73bb411c27e6a5f5f63204cf0bf3013ddf33f08d73f1a4a497e47e10557dd9519181900360600190a1600654600090600290610f42906001614737565b610f4c919061474a565b9050808360020154101580610f65575080836003015410155b15610f7357610f7385613839565b5050505050565b3360009081526008602052604090205460ff1615610fdd5760405160e560020a62461bcd02815260206004820152601760248201527f5573657220616c7265616479207265676973746572656400000000000000000060448201526064016108fa565b336000818152600860209081526040808320805460ff1916600117905560098252918290206064905590519182527f54db7a5cb4735e1aac1f53db512d3390390bb6637bd30ad4bf9fc98667d9b9b9910160405180910390a1565b3360009081526008602052604090205460ff1661106a5760405160e560020a62461bcd0281526004016108fa90614551565b33600090815260096020526040902054603c908111156110cf5760405160e560020a62461bcd02815260206004820152601760248201527f496e73756666696369656e742072657075746174696f6e00000000000000000060448201526064016108fa565b6000600a83815481106110e4576110e4614705565b906000526020600020906009020190508060070160149054906101000a900460ff16156111565760405160e560020a62461bcd02815260206004820152601460248201527f5461736b20616c7265616479206d61746368656400000000000000000000000060448201526064016108fa565b6006810154600160a060020a031633036111db5760405160e560020a62461bcd02815260206004820152602c60248201527f43616e27742061636365707420746865207461736b207075626c69736865642060448201527f627920796f757273656c6621000000000000000000000000000000000000000060648201526084016108fa565b60038101546111eb90600261476f565b3360009081526020819052604090205410156112725760405160e560020a62461bcd02815260206004820152603a60248201527f5468652072656d61696e696e6720706f696e74732061726520696e737566666960448201527f6369656e7420746f2070617920746865206465706f7369742e2100000000000060648201526084016108fa565b61128d333083600301546002611288919061476f565b613796565b60078101805474ff0000000000000000000000000000000000000000193390811674ffffffffffffffffffffffffffffffffffffffffff199092169190911760a060020a179091556040805185815260208101929092527fc8717b61398fb9d7cacf49fe1e296b2f10e9711226b532842b6ffd642cb6a2c691015b60405180910390a1505050565b600033611323858285613a2e565b61132e858585613796565b506001949350505050565b600b818154811061134957600080fd5b6000918252602090912060059091020180546001820180549193509061136e90614588565b80601f016020809104026020016040519081016040528092919081815260200182805461139a90614588565b80156113e75780601f106113bc576101008083540402835291602001916113e7565b820191906000526020600020905b8154815290600101906020018083116113ca57829003601f168201915b5050505050908060020180546113fc90614588565b80601f016020809104026020016040519081016040528092919081815260200182805461142890614588565b80156114755780601f1061144a57610100808354040283529160200191611475565b820191906000526020600020905b81548152906001019060200180831161145857829003601f168201915b505050506003830154600490930154919291600160a060020a0316905085565b600554600160a060020a031633146114ac57600080fd5b6114b68282613ac5565b5050565b600554600160a060020a031633146114d157600080fd5b6114db3382613b14565b50565b6000828152600760205260408120815b60018201548110156115505783600160a060020a031682600101828154811061151957611519614705565b600091825260209091200154600160a060020a03160361153e57600192505050610d40565b806115488161471e565b9150506114ee565b506000949350505050565b3360009081526008602052604090205460ff1661158d5760405160e560020a62461bcd0281526004016108fa90614551565b600081116115e05760405160e560020a62461bcd02815260206004820152601f60248201527f5072696365206d7573742062652067726561746572207468616e207a65726f0060448201526064016108fa565b6040805160a081018252600b80548083526020830187815293830186905260608301859052336080840152600181018255600091909152815160059091027f0175b7a638427703f0dbe7bb9bbf987a2551717b34e79f33b5b1008d1fa01db981019182559251919290917f0175b7a638427703f0dbe7bb9bbf987a2551717b34e79f33b5b1008d1fa01dba909101906116799082614613565b506040820151600282019061168e9082614613565b506060820151600382015560809091015160049091018054600160a060020a031916600160a060020a03909216919091179055600b547ffe78fd6e6c517d1883c42b37c2bb23b0488e8f24ab4929fd406c96d739d5d19a906116f2906001906146f2565b848360405161130893929190614786565b60606000805b600b548110156117725733600160a060020a0316600b828154811061173057611730614705565b6000918252602090912060046005909202010154600160a060020a031603611760578161175c8161471e565b9250505b8061176a8161471e565b915050611709565b5060008167ffffffffffffffff81111561178e5761178e613efc565b6040519080825280602002602001820160405280156117fa57816020015b6117e76040518060a00160405280600081526020016060815260200160608152602001600081526020016000600160a060020a031681525090565b8152602001906001900390816117ac5790505b5090506000805b600b54811015611a025733600160a060020a0316600b828154811061182857611828614705565b6000918252602090912060046005909202010154600160a060020a0316036119f057600b818154811061185d5761185d614705565b90600052602060002090600502016040518060a00160405290816000820154815260200160018201805461189090614588565b80601f01602080910402602001604051908101604052809291908181526020018280546118bc90614588565b80156119095780601f106118de57610100808354040283529160200191611909565b820191906000526020600020905b8154815290600101906020018083116118ec57829003601f168201915b5050505050815260200160028201805461192290614588565b80601f016020809104026020016040519081016040528092919081815260200182805461194e90614588565b801561199b5780601f106119705761010080835404028352916020019161199b565b820191906000526020600020905b81548152906001019060200180831161197e57829003601f168201915b505050918352505060038201546020820152600490910154600160a060020a031660409091015283518490849081106119d6576119d6614705565b602002602001018190525081806119ec9061471e565b9250505b806119fa8161471e565b915050611801565b50909392505050565b600b548110611a5f5760405160e560020a62461bcd02815260206004820152601360248201527f496e76616c6964207265736f757263652049440000000000000000000000000060448201526064016108fa565b6000600b8281548110611a7457611a74614705565b906000526020600020906005020190508060030154611aa833600160a060020a031660009081526020819052604090205490565b1015611af95760405160e560020a62461bcd02815260206004820152601360248201527f496e73756666696369656e7420746f6b656e730000000000000000000000000060448201526064016108fa565b60048101546003820154611b1a913391600160a060020a0390911690613796565b600481018054600160a060020a031916339081179091556040805184815260208101929092527f29fa96f043f568658fc8c852c234c669c0868243629c4ea9a6da7595bad4dbcf910160405180910390a15050565b611b77613b63565b611b816000613ba9565b565b600554600160a060020a03163314611b9a57600080fd5b600554600160a060020a0316604051600160a060020a039190911690303180156108fc02916000818181858888f193505050501580156114db573d6000803e3d6000fd5b806000600a8281548110611bf457611bf4614705565b906000526020600020906009020190508060070160149054906101000a900460ff16611c355760405160e560020a62461bcd0281526004016108fa906147af565b6000600a8481548110611c4a57611c4a614705565b600091825260209091206009909102016006810154909150600160a060020a0316331480611c8457506007810154600160a060020a031633145b611cf95760405160e560020a62461bcd02815260206004820152602360248201527f4f6e6c792063726561746f72206f722061636365707465722063616e2063616e60448201527f63656c000000000000000000000000000000000000000000000000000000000060648201526084016108fa565b3360009081526009602052604090205460051115611d18576000611d34565b33600090815260096020526040902054611d34906005906146f2565b3360008181526009602090815260409182902084905581519283528201929092527ffc577563f1b9a0461e24abef1e1fcc0d33d3d881f20b5df6dda59de4aae2c821910160405180910390a160068101546003820154611da7913091600160a060020a039091169061128890600261476f565b60078101805474ff000000000000000000000000000000000000000019169055604080518581523360208201527f76be7f7b12bf790225259ca3b7ffb98f222f79af3c4c074e88e0c97af6f1402591015b60405180910390a150505050565b600a8181548110611e1657600080fd5b60009182526020909120600990910201805460018201805491935090611e3b90614588565b80601f0160208091040260200160405190810160405280929190818152602001828054611e6790614588565b8015611eb45780601f10611e8957610100808354040283529160200191611eb4565b820191906000526020600020905b815481529060010190602001808311611e9757829003601f168201915b505050505090806002018054611ec990614588565b80601f0160208091040260200160405190810160405280929190818152602001828054611ef590614588565b8015611f425780601f10611f1757610100808354040283529160200191611f42565b820191906000526020600020905b815481529060010190602001808311611f2557829003601f168201915b505050505090806003015490806004018054611f5d90614588565b80601f0160208091040260200160405190810160405280929190818152602001828054611f8990614588565b8015611fd65780601f10611fab57610100808354040283529160200191611fd6565b820191906000526020600020905b815481529060010190602001808311611fb957829003601f168201915b5050505060058301546006840154600785015460088601805495969395600160a060020a0393841695509282169360ff60a060020a840481169460a860020a850482169460b060020a9004909116929061202f90614588565b80601f016020809104026020016040519081016040528092919081815260200182805461205b90614588565b80156120a85780601f1061207d576101008083540402835291602001916120a8565b820191906000526020600020905b81548152906001019060200180831161208b57829003601f168201915b505050505090508c565b60606000805b600a548110156121215733600160a060020a0316600a82815481106120df576120df614705565b6000918252602090912060066009909202010154600160a060020a03160361210f578161210b8161471e565b9250505b806121198161471e565b9150506120b8565b5060008167ffffffffffffffff81111561213d5761213d613efc565b60405190808252806020026020018201604052801561217657816020015b612163613e45565b81526020019060019003908161215b5790505b5090506000805b600a54811015611a025733600160a060020a0316600a82815481106121a4576121a4614705565b6000918252602090912060066009909202010154600160a060020a0316036124dd57600a81815481106121d9576121d9614705565b9060005260206000209060090201604051806101800160405290816000820154815260200160018201805461220d90614588565b80601f016020809104026020016040519081016040528092919081815260200182805461223990614588565b80156122865780601f1061225b57610100808354040283529160200191612286565b820191906000526020600020905b81548152906001019060200180831161226957829003601f168201915b5050505050815260200160028201805461229f90614588565b80601f01602080910402602001604051908101604052809291908181526020018280546122cb90614588565b80156123185780601f106122ed57610100808354040283529160200191612318565b820191906000526020600020905b8154815290600101906020018083116122fb57829003601f168201915b505050505081526020016003820154815260200160048201805461233b90614588565b80601f016020809104026020016040519081016040528092919081815260200182805461236790614588565b80156123b45780601f10612389576101008083540402835291602001916123b4565b820191906000526020600020905b81548152906001019060200180831161239757829003601f168201915b5050509183525050600582015460208201526006820154600160a060020a0390811660408301526007830154908116606083015260ff60a060020a820481161515608084015260a860020a82048116151560a084015260b060020a90910416151560c082015260088201805460e09092019161242f90614588565b80601f016020809104026020016040519081016040528092919081815260200182805461245b90614588565b80156124a85780601f1061247d576101008083540402835291602001916124a8565b820191906000526020600020905b81548152906001019060200180831161248b57829003601f168201915b5050505050815250508383815181106124c3576124c3614705565b602002602001018190525081806124d99061471e565b9250505b806124e78161471e565b91505061217d565b606060048054610ca990614588565b600554600160a060020a0316331461251557600080fd5b60005b60065481101561261c5781600160a060020a03166006828154811061253f5761253f614705565b600091825260209091200154600160a060020a03160361260a5760068054612569906001906146f2565b8154811061257957612579614705565b60009182526020909120015460068054600160a060020a0390921691839081106125a5576125a5614705565b9060005260206000200160006101000a815481600160a060020a030219169083600160a060020a0316021790555060068054806125e4576125e46147e6565b60008281526020902081016000199081018054600160a060020a03191690550190555050565b806126148161471e565b915050612518565b5060405160e560020a62461bcd02815260206004820152601460248201527f41726269747261746f72206e6f7420666f756e6400000000000000000000000060448201526064016108fa565b6000805b6006548110156126c85782600160a060020a03166006828154811061269357612693614705565b600091825260209091200154600160a060020a0316036126b65750600192915050565b806126c08161471e565b91505061266c565b50600092915050565b816000600a82815481106126e7576126e7614705565b906000526020600020906009020190508060070160149054906101000a900460ff166127285760405160e560020a62461bcd0281526004016108fa906147af565b6000600a858154811061273d5761273d614705565b60009182526020909120600660099092020190810154909150600160a060020a031633146127d65760405160e560020a62461bcd02815260206004820152603260248201527f546865207461736b2049442069732077726f6e672e20596f75206469646e277460448201527f207075626c69736820746865207461736b21000000000000000000000000000060648201526084016108fa565b600781015460b060020a900460ff16156128355760405160e560020a62461bcd02815260206004820152601560248201527f5461736b20616c7265616479206469737075746564000000000000000000000060448201526064016108fa565b60078101805476ff00000000000000000000000000000000000000000000191660b060020a1790556008810161286b8582614613565b506040518581527fe374130ee21046a04f5d6be14c752d412f721aecf1e8a04109b0634279cac0a69060200160405180910390a15050505050565b600681815481106128b657600080fd5b600091825260209091200154600160a060020a0316905081565b600033610d3a818585613796565b600060606000805b600a5481101561294757600a818154811061290357612903614705565b906000526020600020906009020160070160169054906101000a900460ff161561293557816129318161471e565b9250505b8061293f8161471e565b9150506128e6565b5060008167ffffffffffffffff81111561296357612963613efc565b60405190808252806020026020018201604052801561299c57816020015b612989613e45565b8152602001906001900390816129815790505b5090506000805b600a54811015612d0d57600a81815481106129c0576129c0614705565b906000526020600020906009020160070160169054906101000a900460ff1615612cfb57600a81815481106129f7576129f7614705565b90600052602060002090600902016040518061018001604052908160008201548152602001600182018054612a2b90614588565b80601f0160208091040260200160405190810160405280929190818152602001828054612a5790614588565b8015612aa45780601f10612a7957610100808354040283529160200191612aa4565b820191906000526020600020905b815481529060010190602001808311612a8757829003601f168201915b50505050508152602001600282018054612abd90614588565b80601f0160208091040260200160405190810160405280929190818152602001828054612ae990614588565b8015612b365780601f10612b0b57610100808354040283529160200191612b36565b820191906000526020600020905b815481529060010190602001808311612b1957829003601f168201915b5050505050815260200160038201548152602001600482018054612b5990614588565b80601f0160208091040260200160405190810160405280929190818152602001828054612b8590614588565b8015612bd25780601f10612ba757610100808354040283529160200191612bd2565b820191906000526020600020905b815481529060010190602001808311612bb557829003601f168201915b5050509183525050600582015460208201526006820154600160a060020a0390811660408301526007830154908116606083015260ff60a060020a820481161515608084015260a860020a82048116151560a084015260b060020a90910416151560c082015260088201805460e090920191612c4d90614588565b80601f0160208091040260200160405190810160405280929190818152602001828054612c7990614588565b8015612cc65780601f10612c9b57610100808354040283529160200191612cc6565b820191906000526020600020905b815481529060010190602001808311612ca957829003601f168201915b505050505081525050838381518110612ce157612ce1614705565b60200260200101819052508180612cf79061471e565b9250505b80612d058161471e565b9150506129a3565b509194909350915050565b6060600b805480602002602001604051908101604052809291908181526020016000905b82821015612ebf57838290600052602060002090600502016040518060a001604052908160008201548152602001600182018054612d7990614588565b80601f0160208091040260200160405190810160405280929190818152602001828054612da590614588565b8015612df25780601f10612dc757610100808354040283529160200191612df2565b820191906000526020600020905b815481529060010190602001808311612dd557829003601f168201915b50505050508152602001600282018054612e0b90614588565b80601f0160208091040260200160405190810160405280929190818152602001828054612e3790614588565b8015612e845780601f10612e5957610100808354040283529160200191612e84565b820191906000526020600020905b815481529060010190602001808311612e6757829003601f168201915b50505091835250506003820154602080830191909152600490920154600160a060020a03166040909101529082526001929092019101612d3c565b50505050905090565b600060606000805b600a54811015612f3057600a8181548110612eed57612eed614705565b906000526020600020906009020160070160149054906101000a900460ff16612f1e5781612f1a8161471e565b9250505b80612f288161471e565b915050612ed0565b5060008167ffffffffffffffff811115612f4c57612f4c613efc565b604051908082528060200260200182016040528015612f8557816020015b612f72613e45565b815260200190600190039081612f6a5790505b5090506000805b600a54811015612d0d57600a8181548110612fa957612fa9614705565b906000526020600020906009020160070160149054906101000a900460ff166132e357600a8181548110612fdf57612fdf614705565b9060005260206000209060090201604051806101800160405290816000820154815260200160018201805461301390614588565b80601f016020809104026020016040519081016040528092919081815260200182805461303f90614588565b801561308c5780601f106130615761010080835404028352916020019161308c565b820191906000526020600020905b81548152906001019060200180831161306f57829003601f168201915b505050505081526020016002820180546130a590614588565b80601f01602080910402602001604051908101604052809291908181526020018280546130d190614588565b801561311e5780601f106130f35761010080835404028352916020019161311e565b820191906000526020600020905b81548152906001019060200180831161310157829003601f168201915b505050505081526020016003820154815260200160048201805461314190614588565b80601f016020809104026020016040519081016040528092919081815260200182805461316d90614588565b80156131ba5780601f1061318f576101008083540402835291602001916131ba565b820191906000526020600020905b81548152906001019060200180831161319d57829003601f168201915b5050509183525050600582015460208201526006820154600160a060020a0390811660408301526007830154908116606083015260ff60a060020a820481161515608084015260a860020a82048116151560a084015260b060020a90910416151560c082015260088201805460e09092019161323590614588565b80601f016020809104026020016040519081016040528092919081815260200182805461326190614588565b80156132ae5780601f10613283576101008083540402835291602001916132ae565b820191906000526020600020905b81548152906001019060200180831161329157829003601f168201915b5050505050815250508383815181106132c9576132c9614705565b602002602001018190525081806132df9061471e565b9250505b806132ed8161471e565b915050612f8c565b6000341161336e5760405160e560020a62461bcd02815260206004820152602260248201527f4d7573742073656e6420736f6d6520657468657220746f2062757920746f6b6560448201527f6e7300000000000000000000000000000000000000000000000000000000000060648201526084016108fa565b600061337b60643461474a565b9050600081116133f65760405160e560020a62461bcd02815260206004820152602660248201527f4e6f7420656e6f75676820657468657220746f20627579206576656e206f6e6560448201527f20746f6b656e000000000000000000000000000000000000000000000000000060648201526084016108fa565b8061340c6104f9600554600160a060020a031690565b101561345d5760405160e560020a62461bcd02815260206004820152601b60248201527f4e6f7420656e6f75676820746f6b656e7320617661696c61626c65000000000060448201526064016108fa565b6114db613472600554600160a060020a031690565b3383613796565b806000600a828154811061348f5761348f614705565b906000526020600020906009020190508060070160149054906101000a900460ff166134d05760405160e560020a62461bcd0281526004016108fa906147af565b6000600a84815481106134e5576134e5614705565b600091825260209091206009909102016007810154909150600160a060020a031633146135575760405160e560020a62461bcd02815260206004820152600e60248201527f4e6f7420617574686f72697a656400000000000000000000000000000000000060448201526064016108fa565b600781015460a860020a900460ff16156135b65760405160e560020a62461bcd02815260206004820152601660248201527f5461736b20616c726561647920636f6d706c657465640000000000000000000060448201526064016108fa565b60078101805475ff00000000000000000000000000000000000000000019811660a860020a1790915560038201546135fb913091600160a060020a0390911690613796565b60078101546003820154613622913091600160a060020a039091169061128890600261476f565b6007810154600160a060020a031660009081526009602052604090205460641115613712576007810154600160a060020a031660009081526009602052604090205460649061367290600a614737565b116136a4576007810154600160a060020a031660009081526009602052604090205461369f90600a614737565b6136a7565b60645b600782018054600160a060020a03908116600090815260096020908152604080832095909555925490911680825290839020548351918252918101919091527ffc577563f1b9a0461e24abef1e1fcc0d33d3d881f20b5df6dda59de4aae2c821910160405180910390a15b6040518481527fc1fa7142cfb933d0855114a3bffde296944c30b727f297c14d0db4d553d3a5c790602001611df8565b61374a613b63565b600160a060020a03811661378d576040517f1e4fbdf7000000000000000000000000000000000000000000000000000000008152600060048201526024016108fa565b6114db81613ba9565b600160a060020a0383166137d9576040517f96c6fd1e000000000000000000000000000000000000000000000000000000008152600060048201526024016108fa565b600160a060020a03821661381c576040517fec442f05000000000000000000000000000000000000000000000000000000008152600060048201526024016108fa565b613827838383613bfb565b505050565b6138278383836001613d3e565b6000818152600760205260408120600a80549192918490811061385e5761385e614705565b906000526020600020906009020190508060070160159054906101000a900460ff16156138d05760405160e560020a62461bcd02815260206004820152601560248201527fe8afa5e4bbbbe58aa1e5b7b2e5ae8ce68890efbc81000000000000000000000060448201526064016108fa565b600781015460b060020a900460ff1661392e5760405160e560020a62461bcd02815260206004820152601860248201527fe8afa5e4bbbbe58aa1e69a82e697a0e4ba89e8aeaeefbc81000000000000000060448201526064016108fa565b81600301548260020154111561399c576007810154600682015460038084015461396a93600160a060020a03908116931691611288919061476f565b6007810154600160a060020a03166000908152600960205260408120805491613992836147ff565b91905055506139ca565b6006810154600160a060020a031660009081526009602052604081208054916139c4836147ff565b91905055505b60078101805476ff000000000000000000000000000000000000000000001916905560038201546002830154604080518681529190921060208201527fed5939bba37a00d5c5e15afdf60875a81165f29105f4cd477f80b8680be049669101611308565b600160a060020a038381166000908152600160209081526040808320938616835292905220546000198114613abf5781811015613ab0576040517ffb8f41b2000000000000000000000000000000000000000000000000000000008152600160a060020a038416600482015260248101829052604481018390526064016108fa565b613abf84848484036000613d3e565b50505050565b600160a060020a038216613b08576040517fec442f05000000000000000000000000000000000000000000000000000000008152600060048201526024016108fa565b6114b660008383613bfb565b600160a060020a038216613b57576040517f96c6fd1e000000000000000000000000000000000000000000000000000000008152600060048201526024016108fa565b6114b682600083613bfb565b600554600160a060020a03163314611b81576040517f118cdaa70000000000000000000000000000000000000000000000000000000081523360048201526024016108fa565b60058054600160a060020a03838116600160a060020a0319831681179093556040519116919082907f8be0079c531659141344cd1fd0a4f28419497f9722a3daafe3b4186f6b6457e090600090a35050565b600160a060020a038316613c26578060026000828254613c1b9190614737565b90915550613cb19050565b600160a060020a03831660009081526020819052604090205481811015613c92576040517fe450d38c000000000000000000000000000000000000000000000000000000008152600160a060020a038516600482015260248101829052604481018390526064016108fa565b600160a060020a03841660009081526020819052604090209082900390555b600160a060020a038216613ccd57600280548290039055613cec565b600160a060020a03821660009081526020819052604090208054820190555b81600160a060020a031683600160a060020a03167fddf252ad1be2c89b69c2b068fc378daa952ba7f163c4a11628f55a4df523b3ef83604051613d3191815260200190565b60405180910390a3505050565b600160a060020a038416613d81576040517fe602df05000000000000000000000000000000000000000000000000000000008152600060048201526024016108fa565b600160a060020a038316613dc4576040517f94280d62000000000000000000000000000000000000000000000000000000008152600060048201526024016108fa565b600160a060020a0380851660009081526001602090815260408083209387168352929052208290558015613abf5782600160a060020a031684600160a060020a03167f8c5be1e5ebec7d5bd14f71427d1e84f3dd0314c0f7b2291e5b200ac8c7c3b92584604051613e3791815260200190565b60405180910390a350505050565b6040518061018001604052806000815260200160608152602001606081526020016000815260200160608152602001600081526020016000600160a060020a031681526020016000600160a060020a03168152602001600015158152602001600015158152602001600015158152602001606081525090565b8035600160a060020a0381168114613ed557600080fd5b919050565b600060208284031215613eec57600080fd5b613ef582613ebe565b9392505050565b60e060020a634e487b7102600052604160045260246000fd5b600082601f830112613f2657600080fd5b813567ffffffffffffffff80821115613f4157613f41613efc565b604051601f8301601f19908116603f01168101908282118183101715613f6957613f69613efc565b81604052838152866020858801011115613f8257600080fd5b836020870160208301376000602085830101528094505050505092915050565b600080600080600060a08688031215613fba57600080fd5b853567ffffffffffffffff80821115613fd257600080fd5b613fde89838a01613f15565b96506020880135915080821115613ff457600080fd5b61400089838a01613f15565b955060408801359450606088013591508082111561401d57600080fd5b5061402a88828901613f15565b95989497509295608001359392505050565b6000815180845260005b8181101561406257602081850181015186830182015201614046565b506000602082860101526020601f19601f83011685010191505092915050565b602081526000613ef5602083018461403c565b600080604083850312156140a857600080fd5b6140b183613ebe565b946020939093013593505050565b600080604083850312156140d257600080fd5b82359150602083013580151581146140e957600080fd5b809150509250929050565b60006020828403121561410657600080fd5b5035919050565b60008060006060848603121561412257600080fd5b61412b84613ebe565b925061413960208501613ebe565b9150604084013590509250925092565b85815260a06020820152600061416260a083018761403c565b8281036040840152614174818761403c565b915050836060830152600160a060020a03831660808301529695505050505050565b600080604083850312156141a957600080fd5b823591506141b960208401613ebe565b90509250929050565b6000806000606084860312156141d757600080fd5b833567ffffffffffffffff808211156141ef57600080fd5b6141fb87838801613f15565b9450602086013591508082111561421157600080fd5b5061421e86828701613f15565b925050604084013590509250925092565b60208082528251828201819052600091906040908185019080840286018301878501865b838110156142cc57603f19898403018552815160a08151855288820151818a8701526142818287018261403c565b9150508782015185820389870152614299828261403c565b60608481015190880152608093840151600160a060020a0316939096019290925250509386019390860190600101614253565b509098975050505050505050565b60006101808e83528060208401526142f48184018f61403c565b90508281036040840152614308818e61403c565b90508b60608401528281036080840152614322818c61403c565b60a084018b9052600160a060020a038a811660c0860152891660e08501528715156101008501529050851515610120840152841515610140840152828103610160840152614370818561403c565b9f9e505050505050505050505050505050565b600081518084526020808501808196508284028101915082860160005b8581101561449f5782840389528151610180815186528682015181888801526143cb8288018261403c565b915050604080830151878303828901526143e5838261403c565b9250505060608083015181880152506080808301518783038289015261440b838261403c565b9250505060a080830151818801525060c08083015161443482890182600160a060020a03169052565b505060e082810151600160a060020a031690870152610100808301511515908701526101208083015115159087015261014080830151151590870152610160918201518682039287019290925261448b818361403c565b9a87019a95505050908401906001016143a0565b5091979650505050505050565b602081526000613ef56020830184614383565b600080604083850312156144d257600080fd5b82359150602083013567ffffffffffffffff8111156144f057600080fd5b6144fc85828601613f15565b9150509250929050565b82815260406020820152600061451f6040830184614383565b949350505050565b6000806040838503121561453a57600080fd5b61454383613ebe565b91506141b960208401613ebe565b60208082526017908201527f55736572206d7573742062652072656769737465726564000000000000000000604082015260600190565b60028104600182168061459c57607f821691505b6020821081036145bf5760e060020a634e487b7102600052602260045260246000fd5b50919050565b601f821115613827576000818152602081206020601f860104810160208610156145ec5750805b6020601f860104820191505b8181101561460b578281556001016145f8565b505050505050565b815167ffffffffffffffff81111561462d5761462d613efc565b6146418161463b8454614588565b846145c5565b602080601f83116001811461467a576000841561465e5750858301515b60028086026008870290910a600019041982161786555061460b565b600085815260208120601f198616915b828110156146a95788860151825594840194600190910190840161468a565b50858210156146c957878501516008601f88160260020a60001904191681555b5050505050600202600101905550565b60e060020a634e487b7102600052601160045260246000fd5b81810381811115610d4057610d406146d9565b60e060020a634e487b7102600052603260045260246000fd5b600060018201614730576147306146d9565b5060010190565b80820180821115610d4057610d406146d9565b60008261476a5760e060020a634e487b7102600052601260045260246000fd5b500490565b8082028115828204841417610d4057610d406146d9565b83815260606020820152600061479f606083018561403c565b9050826040830152949350505050565b60208082526010908201527f5461736b206e6f74206d61746368656400000000000000000000000000000000604082015260600190565b60e060020a634e487b7102600052603160045260246000fd5b60008161480e5761480e6146d9565b50600019019056fea2646970667358221220b337c8b6cc302d156fd1f4284f3376673541db06654483773cdcf56cd838e15464736f6c63430008150033",
  "immutableReferences": {},
  "source": "// SPDX-License-Identifier: MIT\r\npragma solidity ^0.8.0;\r\n\r\nimport \"@openzeppelin/contracts/token/ERC20/ERC20.sol\";\r\nimport \"@openzeppelin/contracts/access/Ownable.sol\";\r\n\r\n// CampusAidPlatform\r\ncontract CampusAidPlatform is ERC20, Ownable {\r\n\r\n    uint256 public constant WEI_PER_TOKEN = 100;\r\n\r\n    // \r\n    function mint(address to, uint256 amount) external only_Owner {\r\n        _mint(to, amount);\r\n    }\r\n\r\n    // \r\n    function burn(uint256 amount) external only_Owner {\r\n        _burn(msg.sender, amount);\r\n    }\r\n\r\n    // FishToken\r\n    function buyTokens() external payable {\r\n        require(msg.value > 0, \"Must send some ether to buy tokens\");\r\n        uint256 tokenAmount = msg.value / WEI_PER_TOKEN;\r\n        require(tokenAmount > 0, \"Not enough ether to buy even one token\");\r\n        require(balanceOf(owner()) >= tokenAmount, \"Not enough tokens available\");\r\n\r\n        // \r\n        _transfer(owner(), msg.sender, tokenAmount);\r\n    }\r\n\r\n    // \r\n    function withdrawEther() external only_Owner {\r\n        payable(owner()).transfer(address(this).balance);\r\n    }\r\n\r\n    // \r\n    function decimals() public pure override returns (uint8) {\r\n        return 2; // 100 wei = 1 FTToken\r\n    }\r\n\r\n        //\r\n    struct Arbitration{\r\n        uint taskId;\r\n        address[] votedArbitrators;//\r\n        uint favorCreatorCount;//\r\n        uint favorAccepterCount;//\r\n    }\r\n\r\n\r\n    // \r\n    struct Task {\r\n        uint id;  // idtasks\r\n        string title; // \r\n        string description; // \r\n        uint256 points; // \r\n        string taskType; // \r\n        uint256 deadline; // \r\n        address creator; // \r\n        address accepter; // \r\n        bool isMatched; // \r\n        bool isCompleted; // \r\n        bool isDisputed; // \r\n        string disputedReason; // \r\n    }\r\n\r\n    // \r\n    struct Resource {\r\n        uint id;  // ID\r\n        string title; // \r\n        string description; // \r\n        uint256 price; // \r\n        address owner; // \r\n    }\r\n\r\n    address[] public arbitrators;//\r\n    mapping(uint => Arbitration) public arbitrations;//\r\n    mapping(address => bool) public isRegistered; // \r\n    mapping(address => uint256) public creditScores; // \r\n    Task[] public tasks; // \r\n    Resource[] public resources; // \r\n\r\n    // \r\n    event UserRegistered(address user); // \r\n    event TaskCreated(uint256 taskId, address creator); // \r\n    event TaskAccepted(uint256 taskId, address accepter); // \r\n    event TaskCompleted(uint256 taskId); // \r\n    event TaskDisputed(uint256 taskId); // \r\n    event TaskResolved(uint256 taskId, bool favorCreator); // \r\n    event ReputationUpdated(address user, uint256 newReputation); // \r\n    event TaskCancelled(uint256 taskId, address canceller); // \r\n    event ResourcePublished(uint256 resourceId, string title, uint256 price); // \r\n    event ResourcePurchased(uint256 resourceId, address buyer); // \r\n    event ArbitrationVoted(uint taskId, address arbitrator, bool favorCreator);//\r\n\r\n    // \r\n    modifier only_Owner() {\r\n        require(msg.sender== Ownable.owner());\r\n        _;\r\n    }\r\n\r\n    // \r\n    modifier isUserRegistered() {\r\n        require(isRegistered[msg.sender], \"User must be registered\");\r\n        _;\r\n    }\r\n    //\r\n    modifier onlyArbitrator(){\r\n        require(isArbitrator(msg.sender), \"Only arbitrator can call this\");\r\n        _;\r\n    }\r\n\r\n    // \r\n    modifier hasSufficientReputation(uint256 requiredScore) {\r\n        require(creditScores[msg.sender] >= requiredScore, \"Insufficient reputation\");\r\n        _;\r\n    }\r\n\r\n    // \r\n    modifier taskIsMatched(uint256 taskId) {\r\n        Task storage task = tasks[taskId];\r\n        require(task.isMatched, \"Task not matched\");\r\n        _;\r\n    }\r\n\r\n    //\r\n    function isArbitrator(address _addr) public view returns (bool){\r\n        for (uint i=0; i < arbitrators.length; i++) {\r\n            if(arbitrators[i] == _addr) {\r\n                return true;\r\n            }\r\n        }\r\n        return false;\r\n    }\r\n\r\n    //\r\n    function addArbitrator(address arbitrator) public  only_Owner{\r\n        require(!isArbitrator(arbitrator),\"Already an arbitrator\");\r\n        arbitrators.push(arbitrator);\r\n    }\r\n\r\n    //\r\n    function removeArbitrator(address arbitrator) public  only_Owner{\r\n        for (uint i = 0; i < arbitrators.length; i++){\r\n            if (arbitrators[i] == arbitrator){\r\n                arbitrators[i] = arbitrators[arbitrators.length-1];\r\n                arbitrators.pop();\r\n                return;\r\n            }\r\n        }\r\n        revert(\"Arbitrator not found\");\r\n    }\r\n\r\n    // \r\n\r\n    constructor() ERC20(\"PointToken\", \"Point\") Ownable(msg.sender) {\r\n        arbitrators.push(Ownable.owner());\r\n        // \r\n        _mint(msg.sender, 1000 * 10 ** decimals());\r\n\r\n     }\r\n\r\n    // \r\n    function register() public {\r\n        require(!isRegistered[msg.sender], \"User already registered\");\r\n        isRegistered[msg.sender] = true;\r\n        creditScores[msg.sender] = 100;  // 100\r\n        emit UserRegistered(msg.sender);\r\n    }\r\n\r\n    // \r\n    function getTaskCount() public view returns (uint256) {\r\n        return tasks.length;\r\n    }\r\n\r\n    \r\n    // \r\n    function getResourceCount() public view returns (uint256) {\r\n        return resources.length;\r\n    }\r\n\r\n    // \r\n    function publishResource(string memory title, string memory description, uint256 price) public isUserRegistered() {\r\n        require(price > 0, \"Price must be greater than zero\");\r\n\r\n        resources.push(\r\n            Resource({\r\n                id: resources.length,\r\n                title: title,\r\n                description: description,\r\n                price: price,\r\n                owner: msg.sender\r\n            })\r\n        );\r\n\r\n        emit ResourcePublished(resources.length - 1, title, price);\r\n    }\r\n\r\n\r\n    // \r\n    function purchaseResource(uint256 resourceId) public {\r\n        require(resourceId < resources.length, \"Invalid resource ID\");\r\n        Resource storage resource = resources[resourceId];\r\n        require(balanceOf(msg.sender) >= resource.price, \"Insufficient tokens\");\r\n\r\n        _transfer(msg.sender, resource.owner, resource.price);\r\n\r\n        resource.owner = msg.sender;\r\n\r\n        emit ResourcePurchased(resourceId, msg.sender);\r\n    }\r\n\r\n    // \r\n    function getOwnedResources() public view returns (Resource[] memory) {\r\n        uint256 count = 0;\r\n\r\n        for (uint256 i = 0; i < resources.length; i++) {\r\n            if (resources[i].owner == msg.sender) {\r\n                count++;\r\n            }\r\n        }\r\n\r\n        Resource[] memory ownedResources = new Resource[](count);\r\n        uint256 j = 0;\r\n\r\n        for (uint256 i = 0; i < resources.length; i++) {\r\n            if (resources[i].owner == msg.sender) {\r\n                ownedResources[j] = resources[i];\r\n                j++;\r\n            }\r\n        }\r\n\r\n        return ownedResources;\r\n    }\r\n\r\n    // \r\n    function getAllResources() public view returns (Resource[] memory) {\r\n        return resources;\r\n    }\r\n\r\n    // \r\n    function createTask(\r\n        string memory title,\r\n        string memory description,\r\n        uint256 points,\r\n        string memory taskType,\r\n        uint256 deadline\r\n    ) public isUserRegistered hasSufficientReputation(60) {\r\n        require(balanceOf(msg.sender) >= points, \"Insufficient points\");\r\n\r\n        _transfer(msg.sender, address(this), points);\r\n\r\n        tasks.push(\r\n            Task({\r\n                id: tasks.length,\r\n                title: title,\r\n                description: description,\r\n                points: points,\r\n                taskType: taskType,\r\n                deadline: deadline,\r\n                creator: msg.sender,\r\n                accepter: address(0),\r\n                isMatched: false,\r\n                isCompleted: false,\r\n                isDisputed: false,\r\n                disputedReason: \"\"\r\n            })\r\n        );\r\n\r\n        emit TaskCreated(tasks.length - 1, msg.sender);\r\n    }\r\n\r\n    // \r\n    function acceptTask(uint256 taskId) public isUserRegistered hasSufficientReputation(60) {\r\n        Task storage task = tasks[taskId];\r\n        require(!task.isMatched, \"Task already matched\");\r\n        require(msg.sender!= task.creator, \"Can't accept the task published by yourself!\");\r\n        require(balanceOf(msg.sender) >= task.points * 2, \"The remaining points are insufficient to pay the deposit.!\");\r\n\r\n        _transfer(msg.sender, address(this), task.points * 2);\r\n\r\n        task.accepter = msg.sender;\r\n        task.isMatched = true;\r\n\r\n        emit TaskAccepted(taskId, msg.sender);\r\n    }\r\n\r\n    // \r\n    function completeTask(uint256 taskId) public taskIsMatched(taskId) {\r\n        Task storage task = tasks[taskId];\r\n        require(msg.sender == task.accepter, \"Not authorized\");\r\n        require(!task.isCompleted, \"Task already completed\");\r\n\r\n        task.isCompleted = true;\r\n\r\n        _transfer(address(this), task.accepter, task.points);\r\n        _transfer(address(this), task.accepter, task.points * 2);\r\n\r\n        // 10100\r\n        if (creditScores[task.accepter] < 100) {\r\n            creditScores[task.accepter] = (creditScores[task.accepter] + 10 > 100)? 100 : creditScores[task.accepter] + 10;\r\n            emit ReputationUpdated(task.accepter, creditScores[task.accepter]);\r\n        }\r\n\r\n        emit TaskCompleted(taskId);\r\n    }\r\n\r\n    // \r\n    function cancelTask(uint256 taskId) public taskIsMatched(taskId) {\r\n        Task storage task = tasks[taskId];\r\n        require(msg.sender == task.creator || msg.sender == task.accepter, \"Only creator or accepter can cancel\");\r\n\r\n        // 5\r\n        creditScores[msg.sender] = (creditScores[msg.sender] >= 5)? creditScores[msg.sender] - 5 : 0;\r\n        emit ReputationUpdated(msg.sender, creditScores[msg.sender]);\r\n\r\n        // \r\n        _transfer(address(this), task.creator, task.points * 2);\r\n\r\n        task.isMatched = false; // \r\n        emit TaskCancelled(taskId, msg.sender);\r\n    }\r\n\r\n    // \r\n    function getTasksCreateByMe() public view returns (Task[] memory) {\r\n        uint256 count = 0;\r\n\r\n        // \r\n        for (uint256 i = 0; i < tasks.length; i++) {\r\n            if (tasks[i].creator == msg.sender) {\r\n                count++;\r\n            }\r\n        }\r\n\r\n        // \r\n        Task[] memory myTasks = new Task[](count);\r\n        uint256 j = 0;\r\n\r\n        // \r\n        for (uint256 i = 0; i < tasks.length; i++) {\r\n            if (tasks[i].creator == msg.sender) {\r\n                myTasks[j] = tasks[i];\r\n                j++;\r\n            }\r\n        }\r\n        return myTasks;\r\n    }\r\n\r\n    //\r\n    function submitTaskAsDisputed(uint256 taskIndex, string memory reason) public taskIsMatched(taskIndex) {\r\n        Task storage task = tasks[taskIndex];\r\n        require(task.creator == msg.sender, \"The task ID is wrong. You didn't publish the task!\");\r\n        require(!task.isDisputed, \"Task already disputed\");\r\n\r\n        task.isDisputed = true;\r\n        task.disputedReason = reason;\r\n        emit TaskDisputed(taskIndex);\r\n    }\r\n\r\n // \r\n    function voteDispute(uint taskId, bool favorCreator) public onlyArbitrator {\r\n        Arbitration storage arbitration = arbitrations[taskId];\r\n        Task storage task = tasks[taskId];\r\n        require(task.isDisputed, \"Task is not disputed\");\r\n        require(!hasVoted(taskId, msg.sender), \"Arbitrator already voted\");\r\n\r\n        arbitration.votedArbitrators.push(msg.sender);\r\n        if (favorCreator) {\r\n            arbitration.favorCreatorCount++;\r\n        } else {\r\n            arbitration.favorAccepterCount++;\r\n        }\r\n\r\n        emit ArbitrationVoted(taskId, msg.sender, favorCreator);\r\n\r\n        // \r\n        uint requiredVotes = (arbitrators.length + 1) / 2; // \r\n        if (arbitration.favorCreatorCount >= requiredVotes || arbitration.favorAccepterCount >= requiredVotes) {\r\n            finalizeDispute(taskId);\r\n        }\r\n    }\r\n\r\n    // \r\n    function hasVoted(uint taskId, address arbitrator) public view returns (bool) {\r\n        Arbitration storage arbitration = arbitrations[taskId];\r\n        for (uint i = 0; i < arbitration.votedArbitrators.length; i++) {\r\n            if (arbitration.votedArbitrators[i] == arbitrator) {\r\n                return true;\r\n                }\r\n            }\r\n        return false;\r\n    }\r\n\r\n    // \r\n    function finalizeDispute(uint taskId) internal {\r\n        Arbitration storage arbitration = arbitrations[taskId];\r\n        Task storage task = tasks[taskId];\r\n        require(!task.isCompleted, unicode\"\");\r\n        require(task.isDisputed, unicode\"\");\r\n        if (arbitration.favorCreatorCount > arbitration.favorAccepterCount) {\r\n            // \r\n            _transfer(task.accepter,task.creator,task.points * 3);// \r\n            creditScores[task.accepter]--;\r\n        } else {\r\n            // \r\n            //_transfer(address(this),task.accepter,task.points * 2);// \r\n            creditScores[task.creator]--;\r\n        }\r\n\r\n        task.isDisputed = false;\r\n        emit TaskResolved(taskId, arbitration.favorCreatorCount > arbitration.favorAccepterCount);\r\n    }\r\n\r\n\r\n    // \r\n    function getUnMatchedTasks() public view returns (uint256,Task[] memory) {\r\n        uint256 count = 0;\r\n\r\n        for (uint256 i = 0; i < tasks.length; i++) {\r\n            if (!tasks[i].isMatched) {\r\n                count++;\r\n            }\r\n        }\r\n\r\n        Task[] memory unMatchedTasks = new Task[](count);\r\n        uint256 j = 0;\r\n\r\n        for (uint256 i = 0; i < tasks.length; i++) {\r\n            if (!tasks[i].isMatched) {\r\n                unMatchedTasks[j] = tasks[i];\r\n                j++;\r\n            }\r\n        }\r\n\r\n        return (count,unMatchedTasks);\r\n    }\r\n\r\n    // \r\n    function getDisputedTasks() public view returns (uint256,Task[] memory) {\r\n        uint256 count = 0;\r\n\r\n        for (uint256 i = 0; i < tasks.length; i++) {\r\n            if (tasks[i].isDisputed) {\r\n                count++;\r\n            }\r\n        }\r\n\r\n        Task[] memory disputedTasks = new Task[](count);\r\n        uint256 j = 0;\r\n\r\n        for (uint256 i = 0; i < tasks.length; i++) {\r\n            if (tasks[i].isDisputed) {\r\n                disputedTasks[j] = tasks[i];\r\n                j++;\r\n            }\r\n        }\r\n        return (count,disputedTasks);\r\n    }\r\n\r\n    // \r\n    function getReputation(address user) public view returns (uint256) {\r\n        return creditScores[user];\r\n    }\r\n}\r\n    ",
  "sourcePath": "E:\\BlockChain\\Project\\schoolplatform\\contracts\\CampusAidPlatform.sol",
  "compiler": {
    "name": "solc",
    "version": "0.8.21+commit.d9974bed.Emscripten.clang"
  },
  "schemaVersion": "3.4.16",
  "updatedAt": "2024-12-30T21:41:53.067Z",
  "networkType": "ethereum",
  "devdoc": {
    "errors": {
      "ERC20InsufficientAllowance(address,uint256,uint256)": [
        {
          "details": "Indicates a failure with the `spender`s `allowance`. Used in transfers.",
          "params": {
            "allowance": "Amount of tokens a `spender` is allowed to operate with.",
            "needed": "Minimum amount required to perform a transfer.",
            "spender": "Address that may be allowed to operate on tokens without being their owner."
          }
        }
      ],
      "ERC20InsufficientBalance(address,uint256,uint256)": [
        {
          "details": "Indicates an error related to the current `balance` of a `sender`. Used in transfers.",
          "params": {
            "balance": "Current balance for the interacting account.",
            "needed": "Minimum amount required to perform a transfer.",
            "sender": "Address whose tokens are being transferred."
          }
        }
      ],
      "ERC20InvalidApprover(address)": [
        {
          "details": "Indicates a failure with the `approver` of a token to be approved. Used in approvals.",
          "params": {
            "approver": "Address initiating an approval operation."
          }
        }
      ],
      "ERC20InvalidReceiver(address)": [
        {
          "details": "Indicates a failure with the token `receiver`. Used in transfers.",
          "params": {
            "receiver": "Address to which tokens are being transferred."
          }
        }
      ],
      "ERC20InvalidSender(address)": [
        {
          "details": "Indicates a failure with the token `sender`. Used in transfers.",
          "params": {
            "sender": "Address whose tokens are being transferred."
          }
        }
      ],
      "ERC20InvalidSpender(address)": [
        {
          "details": "Indicates a failure with the `spender` to be approved. Used in approvals.",
          "params": {
            "spender": "Address that may be allowed to operate on tokens without being their owner."
          }
        }
      ],
      "OwnableInvalidOwner(address)": [
        {
          "details": "The owner is not a valid owner account. (eg. `address(0)`)"
        }
      ],
      "OwnableUnauthorizedAccount(address)": [
        {
          "details": "The caller account is not authorized to perform an operation."
        }
      ]
    },
    "events": {
      "Approval(address,address,uint256)": {
        "details": "Emitted when the allowance of a `spender` for an `owner` is set by a call to {approve}. `value` is the new allowance."
      },
      "Transfer(address,address,uint256)": {
        "details": "Emitted when `value` tokens are moved from one account (`from`) to another (`to`). Note that `value` may be zero."
      }
    },
    "kind": "dev",
    "methods": {
      "allowance(address,address)": {
        "details": "See {IERC20-allowance}."
      },
      "approve(address,uint256)": {
        "details": "See {IERC20-approve}. NOTE: If `value` is the maximum `uint256`, the allowance is not updated on `transferFrom`. This is semantically equivalent to an infinite approval. Requirements: - `spender` cannot be the zero address."
      },
      "balanceOf(address)": {
        "details": "See {IERC20-balanceOf}."
      },
      "decimals()": {
        "details": "Returns the number of decimals used to get its user representation. For example, if `decimals` equals `2`, a balance of `505` tokens should be displayed to a user as `5.05` (`505 / 10 ** 2`). Tokens usually opt for a value of 18, imitating the relationship between Ether and Wei. This is the default value returned by this function, unless it's overridden. NOTE: This information is only used for _display_ purposes: it in no way affects any of the arithmetic of the contract, including {IERC20-balanceOf} and {IERC20-transfer}."
      },
      "name()": {
        "details": "Returns the name of the token."
      },
      "owner()": {
        "details": "Returns the address of the current owner."
      },
      "renounceOwnership()": {
        "details": "Leaves the contract without owner. It will not be possible to call `onlyOwner` functions. Can only be called by the current owner. NOTE: Renouncing ownership will leave the contract without an owner, thereby disabling any functionality that is only available to the owner."
      },
      "symbol()": {
        "details": "Returns the symbol of the token, usually a shorter version of the name."
      },
      "totalSupply()": {
        "details": "See {IERC20-totalSupply}."
      },
      "transfer(address,uint256)": {
        "details": "See {IERC20-transfer}. Requirements: - `to` cannot be the zero address. - the caller must have a balance of at least `value`."
      },
      "transferFrom(address,address,uint256)": {
        "details": "See {IERC20-transferFrom}. Skips emitting an {Approval} event indicating an allowance update. This is not required by the ERC. See {xref-ERC20-_approve-address-address-uint256-bool-}[_approve]. NOTE: Does not update the allowance if the current allowance is the maximum `uint256`. Requirements: - `from` and `to` cannot be the zero address. - `from` must have a balance of at least `value`. - the caller must have allowance for ``from``'s tokens of at least `value`."
      },
      "transferOwnership(address)": {
        "details": "Transfers ownership of the contract to a new account (`newOwner`). Can only be called by the current owner."
      }
    },
    "version": 1
  },
  "userdoc": {
    "kind": "user",
    "methods": {},
    "version": 1
  }
}